:100000000C94F4000C9415010C9415010C9415013A
:100010000C9415010C9415010C9415010C94150108
:100020000C9415010C9415010C9415010C941501F8
:100030000C9415010C9415010C94AB0F0C94150144
:100040000C94540E0C942C0E0C94040E0C94C00DB5
:100050000C9415010C9415010C9415010C941501C8
:100060000C9415010C9415010C9415010C941501B8
:100070000C9415010C9415010C9415010C941501A8
:100080000C9415010C9415010C9415010C94150198
:100090000C9415010C9415010C9415010C94150188
:1000A0000C9415010C9415010C9415010C94150178
:1000B0000C9415010C9415010C9415010C94150168
:1000C0000C9415010C9415010C9415010C94150158
:1000D0000C9415010C9415010C9415010C94150148
:1000E0000C9415010C9415010C9415010C94150138
:1000F0000C9415010C9415010C9415010C94150128
:100100000C9415010C9415010C9415010C94150117
:100110000C9415010C9415010C9415010C94150107
:100120000C9415010C9415010C9415010C941501F7
:100130000C9415010C94830F0C9415010C94980DDC
:100140000C94700D0C94480D0C941E0D0C9415011C
:100150000C9415010C9415010C9415010C941501C7
:100160000C9415010C9415010C9415010C941501B7
:100170000C9415010C9415010C9415010C941501A7
:100180000C9415010C9415010C9415010C94150197
:100190000C9415010C9415010C9415010C94150187
:1001A0000C94D0070C9415010C9415010C941501B6
:1001B0000C9415010C9415010C9415010C94150167
:1001C0000C9415010C9415010C9415010C94150157
:1001D0000C9415010C9415010C9415010C94150147
:1001E0000C9415010C94150111241FBECFEFDFE50F
:1001F000DEBFCDBF00E00CBF11E2A0E0B0E2E4E959
:10020000F2E400E00BBF02C007900D92A430B107EA
:10021000D9F71DE4A4E0B1E201C01D92AF3AB107E5
:10022000E1F70E9417010C9448210C940000CF9232
:10023000EF920F931F93DF93CF93CDB7DEB7CE53DB
:10024000D140CDBFDEBF0E9429160E9402140E9439
:10025000E5120E94AC12CE010196BE016D5F7F4F88
:10026000AE014B5F5F4F0E942115CE010796BE0184
:10027000675F7F4FAE01455F5F4F0E942115CE0142
:100280000D96BE01615F7F4FAE014F5E5F4F0E94D2
:100290001214000080E061ECAE014D5E5F4F9E01E4
:1002A000295E3F4F8E01055E1F4FEE247CE0C72E76
:1002B0000E947B0880E061ECAE01415E5F4F9E01D1
:1002C0002D5D3F4F8E01095D1F4FEE24E3940E9488
:1002D0007B08000081E00E94700480E061ECAE01C8
:1002E000455D5F4F9E01215D3F4F8E010D5C1F4FAD
:1002F000EE240E947B0880E061ECAE01495C5F4F18
:100300009E01255C3F4F8E01015C1F4FEE24E3945C
:100310000E947B0880E00E947004000081E00E943F
:10032000700481E062ECAE014D5B5F4F9E01295B82
:100330003F4F8E01055B1F4FEE240E947B0881E03A
:1003400062ECAE01415B5F4F9E012D5A3F4F8E0123
:10035000095A1F4FEE24E3940E947B0880E00E941C
:100360007004000081E00E94700481E062ECAE0144
:10037000455A5F4F9E01215A3F4F8E010D591F4F25
:10038000EE240E947B0881E062ECAE0149595F4F88
:100390009E0125593F4F8E0101591F4FEE24E394D2
:1003A0000E947B0880E00E947004000081E00E94AF
:1003B000700480E061ECAE014D585F4F9E012958FA
:1003C0003F4F8E0105581F4FEE240E947B0880E0AE
:1003D0000E947004000081E00E94700483E068ECD9
:1003E000AE0141585F4F9E012D573F4F8E01095777
:1003F0001F4F0E947B0880E00E947004000081E093
:100400000E94700483E068ECAE0145575F4F9E0187
:1004100021573F4F8E010D561F4F0E947B0880E0F1
:100420000E947004000081E00E94700484E061EC8E
:10043000AE0149565F4F9E0125563F4F8E01015632
:100440001F4F0E947B0884E061ECAE014D555F4F69
:100450009E0129553F4F8E0105551F4F0E947B0875
:1004600080E00E947004000085E062ECAE0141551E
:100470005F4F9E012D543F4F8E0109541F4F0E9424
:100480007B0885E062ECAE0145545F4F9E0121542C
:100490003F4F8E010D531F4F0E947B0886E064EC96
:1004A000AE0149535F4F9E0125533F4F8E010153CB
:1004B0001F4F0E947B0886E064ECAE014D525F4FF7
:1004C0009E0129523F4F8E0105521F4F0E947B080B
:1004D00087E064ECAE0141525F4F9E012D513F4FCA
:1004E0008E0109511F4F0E947B0887E064ECAE012A
:1004F00045515F4F9E0121513F4F8E010D501F4FBF
:100500000E947B08000085E062ECAE0149505F4F1D
:100510009E0125503F4F8E0101501F4F94E0E92E60
:100520000E947B08000085E062ECAE014D5F5E4FEB
:100530009E01295F3E4F8E01055F1E4F0E947B0882
:10054000000086E064ECAE01415F5E4F9E012D5ECF
:100550003E4F8E01095E1E4F0E947B08000086E020
:1005600064ECAE01455E5E4F9E01215E3E4F8E0102
:100570000D5D1E4F0E947B08000087E064ECAE0119
:10058000495D5E4F9E01255D3E4F8E01015D1E4F10
:100590000E947B08000087E064ECAE014D5C5E4F7A
:1005A0009E01295C3E4F8E01055C1E4F0E947B0818
:1005B000000080E090E0C25CDE4FCDBFDEBFCF9197
:1005C000DF911F910F91EF90CF900895DC0182E0B1
:1005D000A030B80781F482E08093CA01E0E2F0E045
:1005E000E4911092CA011C96EC931C978093CA0167
:1005F000E1E2F0E00FC082E08093CA01E4E2F0E0C3
:10060000E4911092CA011C96EC931C978093CA0146
:10061000E5E2F0E0E4911092CA011D96EC93089592
:10062000FC0181E0838324813581261B3109C901C6
:100630000895FC0181E0838324813581772767FD5C
:100640007095261B370BC9010895FC0181E0838357
:1006500024813581C9010895FC0181E0838384816F
:100660000895FC0181E0838385810895FC018481E4
:1006700014829AE29A95F1F784830895FC0194819B
:1006800081E0848385E58A95F1F794830895FB01E1
:100690004423D9F020E030E040E050E061E0808188
:1006A00080688083838180FFFDCF6383848195810F
:1006B000280F391F4F5F5F4F4430510581F7369542
:1006C000279536952795822F0895808180688083AD
:1006D000838180FFFDCF81E08383848195810895AC
:1006E000FB014423D9F040E050E020E030E061E03D
:1006F000808180688083838180FFFDCF63838481D4
:100700009581480F591F2F5F3F4F2430310581F7E6
:10071000CA0164E070E00E94C1200BC08081806843
:100720008083838180FFFDCF81E0838384819581F5
:10073000682F862F0895AAECB1E092E09C93E82FF1
:10074000F0E0E4911C928E2F08950F93DF93CF93E6
:100750000F92CDB7DEB72FB72983F8941BBEFC01EB
:1007600008ED04BF608389818FBF0F90CF91DF9127
:100770000F910895662311F490E001C090E2482B98
:10078000942BE0E5F0E0928308956F71682BE0E52B
:10079000F0E065830895E0E5F0E02081982F9095E2
:1007A000922390839081892308950F93DF93CF93B1
:1007B0000F92CDB7DEB79FB79983F8941BBE682B15
:1007C00081E490E0FC0108ED04BF608389818FBF64
:1007D0000F90CF91DF910F9108950F93DF93CF93F7
:1007E0000F92CDB7DEB7209140009FB79983F89460
:1007F0001BBEA0E4B0E0287F282BFD0108ED04BF5C
:10080000208399819FBF9C9189230F90CF91DF9185
:100810000F910895E0E4F0E09381917F9160982B2F
:1008200093830895282F30915600662311F0982F56
:1008300001C090E0822F80958323982BE0E5F0E0C3
:100840009683213031F48091680081608093680044
:100850000895223029F480916000816080936000C7
:1008600008950F93DF93CF930F92CDB7DEB78FB775
:100870008983F8941BBE23E083E590E0FC0108ED3A
:1008800004BF208389818FBF0F90CF91DF910F919B
:1008900008950F93DF93CF930F92CDB7DEB78FB745
:1008A0008983F8941BBE21E082E490E0FC0108ED0E
:1008B00004BF208389818FBF0F90CF91DF910F916B
:1008C0000895882329F088E0E0E0F6E0868304C0FC
:1008D00088E0E0E0F6E085838AE68A95F1F70895FE
:1008E000882331F0E0EAF6E080E281838583089591
:1008F000E0EAF6E080E2868382830895882331F07F
:10090000E0EAF6E080E4818385830895E0EAF6E09A
:1009100080E4868382830895882331F0E0EAF6E05C
:1009200080E88183858305C0E0EAF6E080E886837D
:10093000828380E49FE10197F1F70895882331F0E5
:10094000E0E0F6E080E2818385830895E0E0F6E070
:1009500080E2868382830895882329F080E1E0E89D
:10096000F6E08683089580E1E0E8F6E08583089567
:10097000882329F082E0E0E4F6E08683089582E0AF
:10098000E0E4F6E085830895282F80FF05C080E429
:10099000E0E0F6E0858304C080E4E0E0F6E08683F2
:1009A00021FF05C082E0E0E2F6E0858304C082E03A
:1009B000E0E2F6E0868322FF05C084E0E0E2F6E0B4
:1009C0008583089584E0E0E2F6E086830895A0E45C
:1009D000B6E020E111962C93119798E354969C93DE
:1009E000549715962C9315978165E0ECF8E0808379
:1009F000118280EA11968C9308950F931F93482FCC
:100A0000182F1370082F0C70282F30E0C901857043
:100A10009070892B49F08091914D942F92959F7001
:100A2000807F982B9093914D2A703070232B39F052
:100A30008091914D407F8F70842B8093914D84E005
:100A40000E94E7048091914D8093814D112321F004
:100A500080E1E0E8F6E08683002321F082E0E0E434
:100A6000F6E0868380E1E0E4F6E086838FEFE0EC59
:100A7000F8E083838091C20887FFFCCF8091C30890
:100A800080938D4D8091814DE0ECF8E083838091DF
:100A9000C20887FFFCCF8091C30880938D4D80E111
:100AA000E0E4F6E08583112319F0E0E8F6E08583C1
:100AB000002321F082E0E0E4F6E08583E0E4F6E064
:100AC00080E185831092C008868380EB82831F912A
:100AD0000F9108950F931F93182F062F80E00E9407
:100AE000E70480E1E0E4F6E0868388E0E0E0F6E019
:100AF00086838AE68A95F1F71095002331F080917C
:100B00000A21182310930A2105C08091924D1823C1
:100B10001093AE4D80E48093814D002331F084E149
:100B20008093824D80910A2105C085E18093824D9A
:100B30008091924D8093834D20E030E0A0ECB8E0AE
:100B4000F901EF57F24B808113968C9313978091A4
:100B5000C20887FFFCCF8091C30880938D4D2F5F23
:100B60003F4F2330310561F7A0E4B6E090E11596E0
:100B70009C93159788E0E0E0F6E085838AE68A9505
:100B8000F1F715969C9315971092C00816969C93B2
:100B9000169780EB12968C931F910F9108950F93E7
:100BA0001F93182F062F80E00E94E70480E1E0E405
:100BB000F6E0868388E0E0E0F6E086838AE68A95C0
:100BC000F1F7002331F080910A21812B80930A21D3
:100BD00005C08091924D812B8093924D80E480934B
:100BE000814D002331F084E18093824D80910A2170
:100BF00005C085E18093824D8091924D8093834D15
:100C000020E030E0A0ECB8E0F901EF57F24B808132
:100C100013968C9313978091C20887FFFCCF809125
:100C2000C30880938D4D2F5F3F4F2330310561F70F
:100C3000A0E4B6E090E115969C93159788E0E0E07B
:100C4000F6E085838AE68A95F1F715969C931597C9
:100C50001092C00816969C93169780EB12968C9370
:100C60001F910F9108951F93162F21E030E002C0CD
:100C7000220F331F8A95E2F7822F61E00E946A05F6
:100C800010FF05C080E4E0E0F6E0858304C080E466
:100C9000E0E0F6E0868311FF05C082E0E0E2F6E0E6
:100CA000858304C082E0E0E2F6E0868312FF05C09F
:100CB00084E0E0E2F6E0858304C084E0E0E2F6E070
:100CC00086838AE08A95F1F78FEF61E00E94CF0575
:100CD0001F9108950F931F93182F062F80E00E94F5
:100CE000E70480E1E0E4F6E0868388E0E0E0F6E017
:100CF00086838AE68A95F1F7002339F08091904D3A
:100D0000809581238093904D06C08091AE4D809553
:100D100081238093AE4D80E48093814D002329F0A0
:100D20001092824D8091904D05C081E08093824D5C
:100D30008091AE4D80958093834D20E030E0A0EC13
:100D4000B8E0F901EF57F24B808113968C9313971B
:100D50008091C20887FFFCCF8091C30880938D4D9E
:100D60002F5F3F4F2330310561F7A0E4B6E090E1FB
:100D700015969C93159788E0E0E0F6E085838AE677
:100D80008A95F1F715969C9315971092C0081696C0
:100D90009C93169780EB12968C931F910F91089558
:100DA0000F931F93182F062F80E00E94E70480E125
:100DB000E0E4F6E0868388E0E0E0F6E086838AE619
:100DC0008A95F1F7002331F08091904D812B80932B
:100DD000904D05C08091AE4D812B8093AE4D80E447
:100DE0008093814D002329F01092824D8091904D87
:100DF00005C081E08093824D8091AE4D80958093B7
:100E0000834D20E030E0A0ECB8E0F901EF57F24B61
:100E1000808113968C9313978091C20887FFFCCF33
:100E20008091C30880938D4D2F5F3F4F2330310554
:100E300061F7A0E4B6E090E115969C93159788E0E1
:100E4000E0E0F6E085838AE68A95F1F715969C93B3
:100E500015971092C00816969C93169780EB1296E1
:100E60008C931F910F9108950F931F93CF93DF934E
:100E7000882309F445C060E076E08EEDDB01119631
:100E80008C9340E256E09EE0EA019983E0E4F6E0CC
:100E900003E0018320E836E010E1D90111961C93AC
:100EA000A0EAB6E011969C9311978EE9EB018D8331
:100EB00088E0EA018D830583E9011D8315969C93E3
:100EC0001092914D80E4828388E3868B1092924D3C
:100ED0008091924D8093AE4D8091AE4D80930A21CA
:100EE00080910A218093904D8FEF61E00E94D0069F
:100EF0008FEF61E00E94CF058FEF0E94FD0435C0A7
:100F000060E076E00EEDFB01068340E256E02EE065
:100F1000DA0116962C93E0E4F6E013E0168380E8FD
:100F200096E030E1EC013E83A0EAB6E016962C9301
:100F30001697EB010A83EA012A831283EC013A83B4
:100F400012962C9380E48283168A1092924D80919F
:100F5000924D8093AE4D8091AE4D80930A21809149
:100F60000A218093904D1092914DDF91CF911F9166
:100F70000F910895882329F080E1E0E4F6E086836C
:100F8000089580E1E0E4F6E085830895E0E4F6E08A
:100F900080E185831092C008868380EB8283089568
:100FA0001F920F920FB60F920BB60F9211242F9330
:100FB0003F938F939F93AF93BF93EF93FF93809152
:100FC0007E3D87FD06C080917E3D8F5F80937E3D94
:100FD00073C080E1E0E4F6E0868382E0E0EAF6E0D8
:100FE000868320E030E0A0ECB8E09AEA13969C9368
:100FF00013978091C20887FFFCCF8091C308F90145
:10100000EF57F24B80832F5F3F4F2330310571F74D
:1010100082E0E0EAF6E0858380E1E0E4F6E08583C3
:101020008091814D87FF0DC0E0918E4DF0918F4DE5
:10103000EE0FFF1FEE0FFF1FE158F24C8FEF808382
:101040000BC0E0918E4DF0918F4DEE0FFF1FEE0F14
:10105000FF1FE158F24C1082E0918E4DF0918F4DC0
:101060008091814DEE0FFF1FEE0FFF1FEF57F24CE7
:101070008083E0918E4DF0918F4D8091824DEE0FE7
:10108000FF1FEE0FFF1FE058F24C8083E0918E4D62
:10109000F0918F4D8091834DEE0FFF1FEE0FFF1FDC
:1010A000E158F24C808380918E4D90918F4D019646
:1010B00080938E4D90938F4DFF91EF91BF91AF91A3
:1010C0009F918F913F912F910F900BBE0F900FBE6C
:1010D0000F901F901895882349F080E260E00E94ED
:1010E000D00680E260E00E94CF05089580E260E0D3
:1010F0000E946A0608952F923F924F925F926F92DC
:101100007F928F929F92AF92BF92CF92DF92EF9297
:10111000FF920F931F93DF93CF93CDB7DEB7629704
:10112000CDBFDEBFD82EF62E498B5A8B29833A834A
:10113000180181E00E9434078D2D6E2D0E94330628
:101140008F2D0E94FD048D2D8550833018F481E091
:101150000E946B08E0E0F6E010E2118315838D2D0C
:101160000E94C40484E00E94E70484E58093C008E0
:10117000E0EAF6E091E0928382E0808B92879187AB
:10118000E0E8F6E01183E0E4FAE083E2818325E120
:1011900030E02C19310981E090E002C0880F991FDE
:1011A0002A95E2F7019786A397A39695879582AF34
:1011B00093AF8091400A807F81608093400A809144
:1011C000A2008160E0EAF0E08283789410928E4D74
:1011D00010928F4D10927E3D80918E4D90918F4D4B
:1011E00080509440C8F38091400A807F8093400AE9
:1011F0008091A2008E7FE0EAF0E08283F894E0E440
:10120000F6E080E185831092C008868380EB8283BC
:10121000E0E0F6E080E28683828380E00E9434078B
:1012200010928E4D10928F4DCC24BB24AA2488247A
:10123000772466245524DD248FEF8A878B879FE7E8
:101240009C871D861E861F864424188AE1E0EB8356
:101250001C82F0E8FD838E838F8388878987992499
:101260009A942DC1E0918E4DF0918F4DEE0FFF1F9E
:10127000EE0FFF1FE158F24CE080F18002811381F4
:10128000E0918E4DF0918F4DEE0FFF1FEE0FFF1F7F
:10129000E158F24C80819181A281B381582F492F6E
:1012A0003A2F2B2FBB0F880B982FDC0198161CF1BF
:1012B0008915E9F589858915F0F09816C1F59885A5
:1012C0009915C8F0991699F5EF81E915A0F09E16C9
:1012D00071F5FE81F21778F02F1749F52D8123174C
:1012E00050F0321721F58C81841728F04817F9F453
:1012F0009B819517E0F4E0918E4DF0918F4DEE0FAC
:10130000FF1FEE0FFF1FE158F24C80819181A281F7
:10131000B3819C01AD01550F220B322FA9018B83A4
:101320009C83AD83BE832F8328872987922EE091EB
:101330008E4DF0918F4DEE0FFF1FEE0FFF1FE15806
:10134000F24C80819181A281B381582F492F3A2F8D
:101350002B2FBB0F880B982FDC01E8898E1714F117
:10136000E817E1F5E415F0F04E16C1F5FF854F16CC
:10137000C8F0F41599F58E85F817A0F08F1771F560
:101380009D85291778F0921749F5EC853E1750F0A6
:10139000E31721F5FB854F1728F0F417F9F42A8598
:1013A0005217E0F4E0918E4DF0918F4DEE0FFF1F3C
:1013B000EE0FFF1FE158F24C80819181A281B38131
:1013C0009C01AD01550F220B322FA9018A879B8703
:1013D000AC87BD872E872F87422E288BD801C70167
:1013E000BB0F880B982FDC012F2D502F612F982FCA
:1013F000F82FA82FB82FEC2DEE0D31E0EC1508F0EA
:1014000030E02B0D41E02B1508F040E0032F020FD8
:1014100031E0021708F030E0432B2A2D250F51E070
:101420002A1508F050E0142F120F31E0121708F0BF
:1014300030E0532B282D260F41E0281508F040E01E
:10144000752F720F31E0721708F030E0432B872DB3
:10145000890F31E0871508F030E0642F680F21E034
:10146000681708F020E0322B862D8F0F41E086159B
:1014700008F040E0532F580F21E0581708F020E003
:10148000422B852D8A0F31E0851508F030E0480F9A
:1014900021E0481708F020E0322BDB0ECE2EB02ED4
:1014A000A12E872E762E652E542ED30E80918E4D32
:1014B00090918F4D019680938E4D90938F4D80919A
:1014C0008E4D90918F4D8050944008F4CBCE2C2DB2
:1014D0003B2D4A2D582D672D762D852D9D2DD7FE20
:1014E00030C02C2D215091E02C1508F090E08B2D70
:1014F0008D5F41E08B1508F040E0392F380F91E007
:10150000381708F090E0492B4A0D81E04A1508F0A1
:1015100080E0582F580D81E0581508F080E0682FC2
:10152000670D81E0671508F080E0782F760D81E087
:10153000761508F080E0850D91E0851508F090E0C3
:101540009D0D0AE00E94E717B0EAAB2EA5E2BA2E85
:10155000F6E2CF2EDD24EE24FF2400E010E00E940E
:101560007316AA24AA94BB24BA94EFE7CE2E0E9445
:10157000661801E00E946E1703E0A02EBB24CC2465
:1015800000E00E946618C901BA01E989FA8920833E
:101590009183428373832B813C814D815E816F8176
:1015A00078858985992DB0EAAB2EA5E2BA2EF6E2B0
:1015B000CF2E0E947316AA24AA94BB24BA94EFE7F4
:1015C000CE2E0E94661801E00E946E1703E0A02E46
:1015D000BB24CC2400E00E946618C901BA01F101C5
:1015E00020839183428373832A853B854C855D8567
:1015F0006E857F85842D9889B0EAAB2EA5E2BA2E40
:10160000F6E2CF2E0E947316AA24AA94BB24BA94A1
:10161000EFE7CE2E0E94661801E00E946E1703E0ED
:10162000A02EBB24CC2400E00E946618C901BA0198
:10163000E981FA8120839183428373836296CDBFCF
:10164000DEBFCF91DF911F910F91FF90EF90DF9060
:10165000CF90BF90AF909F908F907F906F905F9052
:101660004F903F902F9008953F924F925F926F92CC
:101670007F928F929F92AF92BF92CF92DF92EF9222
:10168000FF920F931F93DF93CF93CDB7DEB7182F41
:101690003B01342E422E81E00E94340785E0F301A5
:1016A00060810E94330686E0F30161810E94330667
:1016B00087E0F30162810E943306812F0E94FD04BE
:1016C000802F0E946B0884E00E94E70484E58093E9
:1016D000C008E0E0F6E080E28183858385E00E9437
:1016E000C404E0EAF6E092E0908B81E0828388E730
:1016F00080938001E0E0F8E080EF8183E0A6F1A62E
:10170000C2A6D3A6A4A6B5A686A697A655240894D5
:101710004108510846A257A296838FEF8783809194
:101720000008807F88608093000810927C3D1092B2
:101730007D3D10928E4D10928F4D1092AD4D1092B6
:1017400006218091062180930521809105218093B7
:1017500004218091A2008660E0EAF0E08283789420
:1017600080E1E0E4F6E0868380E2E0E8F6E0818371
:10177000E0E4FAE083E2818380E290E0032C02C09F
:10178000880F991F0A94E2F786A397A380E190E05F
:1017900002C0880F991F3A94E2F782AF93AF80910D
:1017A000400A807F81608093400A80918E4D9091A5
:1017B0008F4D83559545C8F380910008807F8093B5
:1017C00000088091400A807F8093400A8091A200A7
:1017D000897FE0EAF0E08283F894E0E4F6E080E1DB
:1017E000858385831092C008868380EB8283E0E046
:1017F000F6E080E28683828380E00E943407CF9106
:10180000DF911F910F91FF90EF90DF90CF90BF90ED
:10181000AF909F908F907F906F905F904F903F9090
:1018200008955F926F927F928F929F92AF92BF9234
:10183000CF92DF92EF92FF920F931F93DF93CF939C
:10184000CDB7DEB7682E762EF42E522E81E00E94A0
:101850003407862D6F2D0E943306872D0E94FD04CC
:101860008E2D0E946B0884E00E94E70484E580933B
:10187000C008E0E0F6E080E281838583862D0E9447
:10188000C404E0EAF6E022E0208B81E0828388E76E
:1018900080938001E0E0F9E080EF8183C0A6D1A6CB
:1018A000A2A6B3A684A695A68B899C8986A797A78E
:1018B00010E00150104006A317A326838FEF878303
:1018C00080910009807F88608093000910927C3DA0
:1018D00010927D3D10928E4D10928F4D1092AD4D15
:1018E0001092062180910621809305218091052187
:1018F0008093042180E1E0E4F6E086838091A200F9
:101900008660E0EAF0E08283789480E2E0E8F6E046
:101910008183E0E4FAE083E2818380E290E0052CB9
:1019200002C0880F991F0A94E2F786A397A380E16B
:1019300090E002C0880F991F5A94E2F782AF93AFEC
:101940008091400A807F81608093400A80918E4D13
:1019500090918F4D83559545C8F380910009807F04
:10196000809300098091400A807F8093400A809193
:10197000A200897FE0EAF0E08283F894E0E4F6E0F8
:1019800080E1858385831092C008868380EB828303
:10199000E0E0F6E080E28683828380E00E94340704
:1019A000CF91DF911F910F91FF90EF90DF90CF903B
:1019B000BF90AF909F908F907F906F905F900895B1
:1019C00082E0E0EAF6E086838AEAE0ECF8E08383EE
:1019D0008091C20887FFFCCFE091AD4DF0E080918F
:1019E000C308EF57F24B80838AEAE0ECF8E0838388
:1019F0008091C20887FFFCCFE091AD4DF0E080916F
:101A0000C308EE57F24B80838AEAE0ECF8E0838368
:101A10008091C20887FFFCCFE091AD4DF0E080914E
:101A2000C308ED57F24B808382E0E0EAF6E085835D
:101A30008091AD4D8D5F8093AD4D08951F920F92B3
:101A40000FB60F920BB60F9211242F933F934F9323
:101A50005F936F937F938F939F93AF93BF93EF9316
:101A6000FF930E94E00C1092AD4DFF91EF91BF915A
:101A7000AF919F918F917F916F915F914F913F9126
:101A80002F910F900BBE0F900FBE0F901F901895C7
:101A90001F920F920FB60F920BB60F9211242F9335
:101AA0003F934F935F936F937F938F939F93AF93E6
:101AB000BF93EF93FF930E94E00CFF91EF91BF91D2
:101AC000AF919F918F917F916F915F914F913F91D6
:101AD0002F910F900BBE0F900FBE0F901F90189577
:101AE0001F920F920FB60F920BB60F9211242F93E5
:101AF0003F934F935F936F937F938F939F93AF9396
:101B0000BF93EF93FF930E94E00CFF91EF91BF9181
:101B1000AF919F918F917F916F915F914F913F9185
:101B20002F910F900BBE0F900FBE0F901F90189526
:101B30001F920F920FB60F920BB60F9211242F9394
:101B40003F934F935F936F937F938F939F93AF9345
:101B5000BF93EF93FF930E94E00CFF91EF91BF9131
:101B6000AF919F918F917F916F915F914F913F9135
:101B70002F910F900BBE0F900FBE0F901F901895D6
:101B80001F920F920FB60F920BB60F9211242F9344
:101B90003F934F935F936F937F938F939F93AF93F5
:101BA000BF93EF93FF930E94E00C1092AD4DA0E223
:101BB000B6E08091240681FF0DC08091040686FF67
:101BC00004C082E017968C930CC080E4E0E0F6E05D
:101BD000878307C080E4E0E0F6E0868382E0159624
:101BE0008C93FF91EF91BF91AF919F918F917F91D6
:101BF0006F915F914F913F912F910F900BBE0F907E
:101C00000FBE0F901F9018951F920F920FB60F9254
:101C10000BB60F9211242F933F934F935F936F93C3
:101C20007F938F939F93AF93BF93EF93FF930E9404
:101C3000E00CFF91EF91BF91AF919F918F917F91B8
:101C40006F915F914F913F912F910F900BBE0F902D
:101C50000FBE0F901F9018951F920F920FB60F9204
:101C60000BB60F9211242F933F934F935F936F9373
:101C70007F938F939F93AF93BF93EF93FF930E94B4
:101C8000E00CFF91EF91BF91AF919F918F917F9168
:101C90006F915F914F913F912F910F900BBE0F90DD
:101CA0000FBE0F901F9018951F920F920FB60F92B4
:101CB0000BB60F9211242F933F934F935F936F9323
:101CC0007F938F939F93AF93BF93EF93FF930E9464
:101CD000E00CFF91EF91BF91AF919F918F917F9118
:101CE0006F915F914F913F912F910F900BBE0F908D
:101CF0000FBE0F901F901895FF920F931F93DF93C5
:101D0000CF93CDB7DEB72897CDBFDEBF19821A8239
:101D10001B821C8280918E4D90918F4D01968093F5
:101D20008E4D90938F4D80ED8093C00860E070E001
:101D30008E010B5F1F4FFF24FA94FB01EF57F24B0C
:101D400080818823880F880B8F21F8018383FB0112
:101D5000EF57F24B8081F8018283FB01EE57F24B83
:101D60008081F8018183FB01ED57F24B8081F801FE
:101D7000808329813A814B815C818D819E81AF81F5
:101D8000B885820F931FA41FB51F89839A83AB83E5
:101D9000BC836D5F7F4F6C30710579F669817A8104
:101DA0008B819C8124E030E040E050E00E94F620EE
:101DB000C901DA0189839A83AB83BC8389818093CB
:101DC000834D8A818093824D8B818093814D80E108
:101DD000E0E4F6E0868388E0E0E2F6E08683000057
:101DE00086E0E0ECF8E083838091C20887FFFCCFB7
:101DF0008091C30880938D4DE0E2F6E088E0858312
:101E000000008683000082E0E0ECF8E083838091AC
:101E1000C20887FFFCCF8091C30880938D4D8091CD
:101E20007D3DE0ECF8E083838091C20887FFFCCF22
:101E30008091C30880938D4D80917C3DE0ECF8E06B
:101E400083838091C20887FFFCCF8091C308809371
:101E50008D4D8091814DE0ECF8E083838091C20844
:101E600087FFFCCF8091C30880938D4D8091824D78
:101E7000E0ECF8E083838091C20887FFFCCF80917B
:101E8000C30880938D4D8091834DE0ECF8E083830F
:101E90008091C20887FFFCCF8091C30880938D4D4D
:101EA00088E0E0E2F6E08583E0E4F6E090E1958307
:101EB00084E58093C008968380917C3D90917D3D20
:101EC000039680937C3D90937D3D90910421809179
:101ED000814D890F80930421909105218091824D3D
:101EE000890F80930521909106218091834D890F60
:101EF000809306212896CDBFDEBFCF91DF911F9141
:101F00000F91FF9008951F920F920FB60F920BB68C
:101F10000F9211242F933F934F935F936F937F936F
:101F20008F939F93AF93BF93EF93FF930E947C0E89
:101F3000FF91EF91BF91AF919F918F917F916F91A1
:101F40005F914F913F912F910F900BBE0F900FBE5D
:101F50000F901F9018951F920F920FB60F920BB60D
:101F60000F9211242F933F934F935F936F937F931F
:101F70008F939F93AF93BF93EF93FF930E947C0E39
:101F8000FF91EF91BF91AF919F918F917F916F9151
:101F90005F914F913F912F910F900BBE0F900FBE0D
:101FA0000F901F901895CF93DF93EC0180E00E9473
:101FB000E70480ED8093C00880E1E0E4F6E08683EA
:101FC00088E0E0E2F6E08683000083E0E0ECF8E001
:101FD00083838091C20887FFFCCF8091C3088093E0
:101FE0008D4D80917D3DE0ECF8E083838091C208C7
:101FF00087FFFCCF8091C30880938D4D80917C3DFD
:10200000E0ECF8E083838091C20887FFFCCF8091E9
:10201000C30880938D4D20E030E0A0ECB8E09AEA50
:102020000FC013969C9313978091C20887FFFCCF33
:102030008091C308F901E55FFE4D80832F5F3F4F1C
:102040002C173D0770F388E0E0E2F6E08583E0E4DA
:10205000F6E080E1858385831092C008868380EB5B
:102060008283DF91CF9108952F923F924F925F929A
:102070006F927F928F929F92AF92BF92CF92DF9298
:10208000EF92FF920F931F93CF93DF9325EA3DE4E6
:102090001092A54D1092A64D1092A74D1092A84DEA
:1020A0001092A94D1092AA4D1092AB4D1092AC4DCA
:1020B0008091A54D9091A64D4091A74D5091A84D6E
:1020C0006091A94D7091AA4DE091AB4DF091AC4D4E
:1020D000D901189780939D4D11969C931197129654
:1020E0004C93129713965C93139714966C931497D2
:1020F00015967C9315971696EC9316971796FC9366
:10210000179780919D4D90919E4D40919F4D50917C
:10211000A04D6091A14D7091A24D1091A34D0091E1
:10212000A44DF90170978093954D91834283538319
:102130006483758316830783109209218091092196
:1021400080930821809108218093072110927C3D83
:1021500010927D3D6624772469017D01EF0181E7BE
:102160009CE10E94D30F80917C3D90917D3D8F58E2
:10217000934E80937C3D90937D3D00E010E0C8013C
:1021800063E070E00E94AD209C01FC01E95FFE4D20
:102190008081D801A55FBE4D9C91890F8083211558
:1021A000310519F58C91E0917F4DF091804D87FFBD
:1021B0000AC01082118212828FEF83838483858309
:1021C0008683878308C01082118212821382148250
:1021D000158216821782F801E55FFE4D8081E0913D
:1021E0007F4DF091804D82830CC0E0917F4DF09146
:1021F000804D2130310519F48C91818302C08C917E
:102200008083C80169E070E00E94AD2082309105B2
:1022100009F07BC05091954D2091964DB091974D0E
:10222000A090984D5090994D40909A4D30909B4D74
:1022300020909C4DE0917F4DF091804D80813181C7
:1022400042817381A481B58086806781580F91E0B7
:10225000581708F090E0832F820F21E0831708F0D1
:1022600020E0992E980E91E0981608F090E0292B26
:10227000842F8B0F31E0841708F030E0F22FF80F35
:1022800091E0F81708F090E0392B872F8A0D21E0B4
:10229000871708F020E0E32FE80F91E0E81708F037
:1022A00090E0292B8A2F850D31E08A1708F030E065
:1022B000722F780F91E0781708F090E0392B8B2D72
:1022C000840D21E08B1508F020E0432F480F91E0AA
:1022D000481708F090E0292B882D830D91E0881590
:1022E00008F090E0322F380F21E0381708F020E096
:1022F000922B620D960F5093954D9982FA83EB8342
:102300007C834D833E839F8305C18530910509F011
:1023100075C050919D4D20919E4DB0919F4DA090C4
:10232000A04D5090A14D4090A24D3090A34D2090D3
:10233000A44DE0917F4DF091804D808131814281AB
:102340007381A481B58086806781580F91E058170A
:1023500008F090E0832F820F21E0831708F020E03F
:10236000992E980E91E0981608F090E0292B842F72
:102370008B0F31E0841708F030E0F22FF80F91E076
:10238000F81708F090E0392B872F8A0D21E0871786
:1023900008F020E0E32FE80F91E0E81708F090E064
:1023A000292B8A2F850D31E08A1708F030E0722F33
:1023B000780F91E0781708F090E0392B8B2D840D81
:1023C00021E08B1508F020E0432F480F91E04817DB
:1023D00008F090E0292B882D830D91E0881508F0F6
:1023E00090E0322F380F21E0381708F020E0922BD0
:1023F000620D960F50939D4DD70178C0883091059E
:1024000009F088C05091A54D2091A64DB091A74DDF
:10241000A090A84D5090A94D4090AA4D3090AB4D42
:102420002090AC4DE0917F4DF091804D80813181C5
:1024300042817381A481B58086806781580F91E0C5
:10244000581708F090E0832F820F21E0831708F0DF
:1024500020E0992E980E91E0981608F090E0292B34
:10246000842F8B0F31E0841708F030E0F22FF80F43
:1024700091E0F81708F090E0392B872F8A0D21E0C2
:10248000871708F020E0E32FE80F91E0E81708F045
:1024900090E0292B8A2F850D31E08A1708F030E073
:1024A000722F780F91E0781708F090E0392B8B2D80
:1024B000840D21E08B1508F020E0432F480F91E0B8
:1024C000481708F090E0292B882D830D91E088159E
:1024D00008F090E0322F380F21E0381708F020E0A4
:1024E000922B620D960F5093A54DD60111969C929A
:1024F00011971296FC9312971396EC9313971496D8
:102500007C93149715964C93159716963C931697B3
:1025100017969C930F5F1F4FBCE101371B0709F013
:102520002ECE0894611C711CE9E06E16710409F04E
:1025300016CEDF91CF911F910F91FF90EF90DF901A
:10254000CF90BF90AF909F908F907F906F905F9053
:102550004F903F902F9008958F929F92AF92BF928D
:10256000CF92DF92EF920F930F920F9280E190E063
:10257000EDB7FEB78183928387E068EC40E020E00E
:1025800005E1EE24E3945DE0C52ED12C3EE0A32EC0
:10259000B12C9FE0892E912C0E94110C0F900F906E
:1025A00081E00E94340780ED97E00197F1F70E94E7
:1025B000341080E00E9434070F91EF90DF90CF90AD
:1025C000BF90AF909F908F9008958F929F92AF92FF
:1025D000BF92CF92DF92EF92FF920F93DF93CF9350
:1025E00000D0CDB7DEB7DE011196E0E0F0E283E087
:1025F00001900D928150E1F78EECBE016F5F7F4F2D
:1026000040E025E101E0BDE0EB2EF12CAEE0CA2E6A
:10261000D12CF0E1AF2EB12CE1E18E2E912C0E9455
:10262000340B81E00E94340780ED97E00197F1F7C9
:102630000E94341080E00E9434072396CDBFDEBF95
:10264000CF91DF910F91FF90EF90DF90CF90BF90EF
:10265000AF909F908F900895EF92FF921F93CF932A
:10266000DF9310927C3D10927D3D10928E4D109222
:102670008F4D109206218091062180930521809133
:1026800005218093042181E00E94340784E00E94A8
:10269000E70480ED8093C0088DE08093814D83EF47
:1026A0008093824D87E58093834D10E4E12E16E000
:1026B000F12E30E1A0E2B6E028E040EC58E076E010
:1026C000E0ECF8E062E084C0E7013E8316962C93CC
:1026D00016970000EA017B838091C20887FFFCCF38
:1026E0008091C30880938D4D15962C93159700000B
:1026F00016962C931697000063838091C20887FF7B
:10270000FCCF8091C30880938D4D80917D3D838364
:102710008091C20887FFFCCF8091C30880938D4DC4
:1027200080917C3D83838091C20887FFFCCF80919C
:10273000C30880938D4D8091814D83838091C20821
:1027400087FFFCCF8091C30880938D4D8091824D8F
:1027500083838091C20887FFFCCF8091C308809358
:102760008D4D8091834D83838091C20887FFFCCF7C
:102770008091C30880938D4D15962C931597E70192
:102780003D8380917C3D90917D3D039680937C3D7F
:1027900090937D3D909104218091814D890F80938C
:1027A0000421909105218091824D890F809305210C
:1027B000909106218091834D890F8093062180910D
:1027C0008E4D90918F4D019680938E4D90938F4DAD
:1027D00080918E4D90918F4D8355954508F474CF1F
:1027E000E0E4F6E080E185831092C008868380EB08
:1027F000828380E00E943407DF91CF911F91FF9088
:10280000EF9008950E942C1381E00E94340780ED20
:1028100097E00197F1F70E94341080E00E9434079E
:10282000089508952F923F924F925F926F927F92F8
:102830008F929F92AF92BF92CF92DF92EF92FF92D0
:102840000F931F93DF93CF93CDB7DEB72597CDBFFF
:10285000DEBF1C016A837B834C835D8381E00E9421
:10286000340784E060E00E94D00684E060E00E94CB
:10287000CF0580E492E00E94E60200E412E080913D
:102880004102897EF801818380914402887F8360C0
:102890008483809142028F7C828320E6E22E22E0B4
:1028A000F22E80916002807E81608093600289E0D8
:1028B000F70181838091400281608093400280E42F
:1028C00092E00E943E0380E492E060E672E040E025
:1028D0000E9447038983809140028E7F809340024B
:1028E000F7011182809143028F73F80183838091F5
:1028F000400281608093400280E492E00E943E03A7
:10290000809141028860F8018183EE24FF248701D1
:10291000412C90E1592E612C712C8824992454016A
:10292000CC24DD248091630280FFFCCF698180E6A6
:1029300092E00E941903A0E0B0E0E80EF91E0A1F21
:102940001B1F88169906AA06BB0610F44C015D01F0
:1029500084159505A605B70510F42C013D010894D2
:10296000C11CD11CF0E0CF16F4E0DF06D9F680914F
:102970004102877FE0E4F2E08183809140028E7F14
:102980008093400284E060E00E946A0680E00E943A
:1029900034078AE016950795F794E7948A95D1F75E
:1029A000C801B70128EE33E040E050E00E948E20DD
:1029B0002FEF3FE040E050E00E94D420225330400F
:1029C000F10120833183C501B40128EE33E040E0FA
:1029D00050E00E948E202FEF3FE040E050E00E9448
:1029E000D42022533040EC81FD8120833183C30108
:1029F000B20128EE33E040E050E00E948E202FEF3D
:102A00003FE040E050E00E94D42022533040EA8171
:102A1000FB81208331832596CDBFDEBFCF91DF912F
:102A20001F910F91FF90EF90DF90CF90BF90AF90EC
:102A30009F908F907F906F905F904F903F902F90DE
:102A400008952F923F924F925F926F927F928F9252
:102A50009F92AF92BF92CF92DF92EF92FF920F932D
:102A60001F93DF93CF93CDB7DEB72597CDBFDEBFE2
:102A70001C016A837B834C835D8381E00E94340761
:102A800080E092E00E94E60200E012E08091010204
:102A9000897EF801818380910402887F836084832A
:102AA000809102028F7C828350E2E52E52E0F52E67
:102AB00080912002807E81608093200289E0F7016E
:102AC00081838091000281608093000280E092E027
:102AD0000E943E0380E092E060E272E040E00E94EB
:102AE00047038983809100028E7F80930002F70163
:102AF0001182809103028F73F80183838091000219
:102B000081608093000280E092E00E943E03809109
:102B100001028860F8018183EE24FF248701412CA3
:102B200040E1542E612C712C882499245401CC242A
:102B3000DD248091230280FFFCCF698180E292E056
:102B40000E941903A0E0B0E0E80EF91E0A1F1B1F47
:102B500088169906AA06BB0610F44C015D0184157F
:102B60009505A605B70510F42C013D010894C11C7C
:102B7000D11CF0E0CF16F4E0DF06D9F68091010217
:102B8000877FE0E0F2E081838091000282608093A1
:102B90000002809100028E7F8093000280E00E94FC
:102BA00034073AE016950795F794E7943A95D1F7EC
:102BB000C801B70128EE33E040E050E00E948E20CB
:102BC0002FEF3FE040E050E00E94D42022533040FD
:102BD000F10120833183C501B40128EE33E040E0E8
:102BE00050E00E948E202FEF3FE040E050E00E9436
:102BF000D42022533040EC81FD8120833183C301F6
:102C0000B20128EE33E040E050E00E948E202FEF2A
:102C10003FE040E050E00E94D42022533040EA815F
:102C2000FB81208331832596CDBFDEBFCF91DF911D
:102C30001F910F91FF90EF90DF90CF90BF90AF90DA
:102C40009F908F907F906F905F904F903F902F90CC
:102C500008958091500082608093500080E060E091
:102C60000E94D5038091510081FFFCCF81E00E943A
:102C7000ED0381E00E94CB030895809150008260B3
:102C80008093500080E061E00E94D5038091510064
:102C900081FFFCCF81E00E94ED0381E00E94CB0325
:102CA000089580EC60E04BE00E94BA0380915000F0
:102CB0008860809350008091510083FFFCCF80ECAE
:102CC00062E00E94C50380915000806180935000B3
:102CD0008091510084FFFCCF84E00E94ED0381E0ED
:102CE0000E94CB030895A0E3B0E0E9E7F6E10C947D
:102CF0001121A8E04E010894811C911CF401BA2F07
:102D00001192BA95E9F729833A834B835C836D83EB
:102D10007E838F839887CE010996FC011192AA9534
:102D2000E9F7A986BA86CB86DC86ED86FE860F8714
:102D3000188B29813A814B815C812DA73EA74FA733
:102D400058AB79018A018FEF9FEFA0E0B0E0E82255
:102D5000F9220A231B231A014424552429853A8584
:102D60004B855C8529A73AA74BA75CA759016A0147
:102D7000A822B922CA22DB223A0188249924C6015A
:102D8000B501A80197010E948E206DA37EA38FA399
:102D900098A7C401B3010E948E2069A37AA38BA3D4
:102DA0009CA3C601B501A20191010E948E207B0166
:102DB0008C01C401B3010E948E205B016C0189A1CA
:102DC0009AA1ABA1BCA18E0D9F1DA01FB11F89A30D
:102DD0009AA3ABA3BCA32DA13EA14FA158A5CA01A4
:102DE000AA27BB2729A13AA14BA15CA1280F391F13
:102DF0004A1F5B1F29A33AA34BA35CA32E153F05D3
:102E00004007510740F480E090E0A1E0B0E0A80E58
:102E1000B91ECA1EDB1E89A19AA1ABA1BCA19D014E
:102E2000442755272A0D3B1D4C1D5D1D2D8F3E8FC0
:102E30004F8F58A36C01BB24AA248DA19EA1AFA1E2
:102E4000B8A5A070B070A80EB91ECA1EDB1EA98E50
:102E5000BA8ECB8EDC8E9A8C8B8C7C8C9E8D6F8DFB
:102E600078A1FE01719688E0DF011D928A95E9F74D
:102E70002D8B9E8B6F8B788F2D853E854F85588946
:102E80006DA57EA58FA598A90E948E207B018C013F
:102E90002D813E814F81588569A57AA58BA59CA57A
:102EA0000E948E20E60EF71E081F191F6D897E896D
:102EB0008F89988D6E0D7F1D801F911F6D8B7E8B6E
:102EC0008F8B988FEE892A2D392D482D572D7E2FE7
:102ED0008F89988DE096E2E10C942D21EF92FF927C
:102EE0000F93DF93CF93CDB7DEB76097CDBFDEBF33
:102EF000A82F002309F461C07E010894E11CF11C95
:102F000088E0F70111928A95E9F729833A834B8388
:102F10005C836D837E83AF83988780E2801BE82F7C
:102F2000FF27E7FDF09549815A816B817C81181656
:102F300084F019861A861B861C86882799278E1B83
:102F40009F0B04C0440F551F661F771F8A95D2F749
:102F500028C0202F332727FD3095DB01CA01022E20
:102F600004C0880F991FAA1FBB1F0A94D2F7898734
:102F70009A87AB87BC8704C0769567955795479528
:102F8000EA95D2F78D819E81AF81B88504C0880F04
:102F9000991FAA1FBB1F2A95D2F7482B592B6A2BC2
:102FA0007B2B4D875E876F87788B29853A854B858C
:102FB0005C856D857E85AF8598898A2F6096CDBFAB
:102FC000DEBFCF91DF910F91FF90EF900895EF92C8
:102FD000FF920F93DF93CF93CDB7DEB76097CDBF4E
:102FE000DEBFA82F002309F467C07E010894E11C0E
:102FF000F11C88E0F70111928A95E9F729833A8359
:103000004B835C836D837E83AF83988780E2801BD4
:103010004D815E816F817885E82FFF27E7FDF09570
:103020001816B4F0DB01CA01BB0F880B982FDC0126
:103030008D879E87AF87B88B882799278E1B9F0B1C
:1030400004C075956795579547958A95D2F728C01E
:10305000202F332727FD3095DB01CA01022E04C043
:10306000B595A795979587950A94D2F78D879E87F2
:10307000AF87B88B04C0440F551F661F771FEA95B2
:10308000D2F789819A81AB81BC8104C0B695A7959E
:10309000979587952A95D2F7482B592B6A2B7B2B2E
:1030A00049875A876B877C8729853A854B855C855C
:1030B0006D857E85AF8598898A2F6096CDBFDEBFEE
:1030C000CF91DF910F91FF90EF900895A2E7B0E0CC
:1030D000ECE6F8E10C941121982E892E712E88E0EF
:1030E000FE013196DF01682E1D926A94E9F729836B
:1030F0003A834B835C836D837E839F829887FE0136
:103100003996DF011D928A95E9F7A986BA86CB86A2
:10311000DC86ED86FE860F87188B8D819E81AF81C0
:10312000B885B7FD07C0E1961CAE1DAE1EAE1FAE42
:10313000E19764C0219581E0121608F080E0319596
:1031400091E0131608F090E0B32FB81B81E03B1715
:1031500008F080E0982B419531E0141608F030E03B
:10316000A42FA91B81E04A1708F080E0382B519565
:1031700091E0151608F090E0F52FF31B81E05F1742
:1031800008F080E0982B619531E0161608F030E0E9
:10319000E62FE91B81E06E1708F080E0382B71956F
:1031A00041E0171608F040E0572F531B81E07517D8
:1031B00008F080E0482B892D819591E0181608F0E1
:1031C00090E0682E641A462D31E0861508F030E054
:1031D000932B882D8195891B2983BA83AB83FC832C
:1031E000ED835E834F8388872FEF3FEF4FEF5FEFD5
:1031F000E1962CAF3DAF4EAF5FAFE1978D859E85D9
:10320000AF85B889B7FF6AC0E1964CAD5DAD6EADD4
:103210007FADE1974095509560957095E1964CAFE4
:103220005DAF6EAF7FAFE197A19481E01A1408F013
:1032300080E0B19491E01B1408F090E06B2D681BC6
:1032400081E0B61608F080E0982BC19421E01C14B0
:1032500008F020E05C2D591B81E0C51608F080E0E5
:10326000282BD19491E01D1408F090E04D2D421BC5
:1032700081E0D41608F080E0982BE19421E01E1440
:1032800008F020E03E2D391B81E0E31608F080E0D5
:10329000282BF19491E01F1408F090E07F2D721B11
:1032A000272F81E0F71608F080E0982B019511E0B8
:1032B000101608F010E0802F891B982F81E0091765
:1032C00008F080E0182B872D8195811BA9866A87DD
:1032D0005B874C873D872E879F87888B99812A81C2
:1032E0003B814C815D816E817F81A885B9851A857E
:1032F0000B85FC84ED84DE84CF84B88888E0E1E12E
:103300008E2E912C8C0E9D1EF401682E11926A94C3
:10331000E9F7998B2A8B3B8B4C8B5D8B6E8B7F8B6C
:10332000A88F9E01275E3F4FF90111928A95E9F718
:10333000B98F1A8F0B8FFC8EED8EDE8ECF8EB8A2DA
:10334000298C3A8C4B8C5C8CED8CFE8C0F8D18A1EB
:1033500069887A888B889C8821966CAE7DAE8EAE0B
:103360009FAE21976D887E888F88988CE114F10438
:103370000105110509F0D9C362147304840495048E
:1033800008F057C100E0201600E0300601E04006DA
:1033900000E0500688F41FEF211631044104510467
:1033A00039F030F048E0E42EF12C012D112D18C039
:1033B000EE24FF24870114C020E0221620E032060C
:1033C00020E0420621E0520630F038E1E32EF12CF5
:1033D000012D112D05C020E1E22EF12C012D112D22
:1033E000D201C1010E2C04C0B695A795979587957B
:1033F0000A94D2F78D5F9F4DDC012C9180E290E022
:10340000A0E0B0E08E199F09A00BB10B7C018D01EB
:10341000E21AF10801091109E114F104010511058D
:10342000D1F10E2C04C0220C331C441C551C0A94F0
:10343000D2F7A40193010E2C04C0220F331F441FA6
:10344000551F0A94D2F780E290E08E199F092196C9
:103450006CAC7DAC8EAC9FAC219704C096948794E5
:10346000779467948A95D2F7622A732A842A952AD8
:103470002196ACACBDACCEACDFAC219704C0AA0C9D
:10348000BB1CCC1CDD1CEA94D2F72196ACAEBDAEC1
:10349000CEAEDFAE21976201EE24FF242996CCAE9A
:1034A000DDAEEEAEFFAE2997920181012070307043
:1034B0002D960CAF1DAF2EAF3FAF2D97C401B301BA
:1034C000A70196010E94D4207B018C01C401B301A5
:1034D00029962CAD3DAD4EAD5FAD29970E94D4200D
:1034E000C901DA013C014D01C401B3012D962CAD97
:1034F0003DAD4EAD5FAD2D970E948E209B01AC017E
:103500008701FF24EE242196ACACBDACCEACDFAC81
:103510002197C601AA27BB2757016801A82AB92A03
:10352000CA2ADB2AA216B306C406D506E0F408941C
:103530006108710881089108A20CB31CC41CD51C39
:10354000A214B304C404D50470F0A216B306C406D2
:10355000D50648F408946108710881089108A20C06
:10356000B31CC41CD51CA21AB30AC40AD50AC601CE
:10357000B50129962CAD3DAD4EAD5FAD29970E94AA
:10358000D4207B018C01C601B50129962CAD3DAD3F
:103590004EAD5FAD29970E94D420C901DA015C01CC
:1035A0006D01C601B5012D962CAD3DAD4EAD5FADA3
:1035B0002D970E948E209B01AC018701FF24EE24F1
:1035C00021968CAD9DADAEADBFAD2197A070B07012
:1035D000E82AF92A0A2B1B2BE216F3060407150723
:1035E000C0F40894A108B108C108D108E20CF31C8A
:1035F000041D151DE214F3040405150550F0E21630
:10360000F3060407150728F40894A108B108C108B7
:10361000D108D3019927882786017501E82AF92A5C
:103620000A2B1B2B2596ECAEFDAE0EAF1FAF2597D8
:10363000EBC4211431044104510471F461E070E0E1
:1036400080E090E020E030E040E050E00E94D420B4
:10365000C901DA011C012D0100E0201600E030064E
:1036600001E0400600E0500688F41FEF2116310407
:103670004104510431F028F048E050E060E070E08F
:1036800017C040E050E060E070E012C020E0221679
:1036900020E0320620E0420621E0520628F048E110
:1036A00050E060E070E004C040E150E060E070E0B5
:1036B000D201C101042E04C0B695A79597958795B0
:1036C0000A94D2F78D5F9F4DDC012C91E0E2EE2E43
:1036D000F12C012D112DD801C701841B950BA60BD0
:1036E000B70B821B9109A109B1090097A105B1058A
:1036F00061F464015301A218B308C408D50831E08D
:10370000632E712C812C912C24C1E3968FAFE3970B
:10371000082E04C0220C331C441C551C0A94D2F7FA
:10372000EE2DE81B640153010E2E04C0D694C794FD
:10373000B794A7940A94D2F7A4019301E3960FAC2F
:10374000E39704C0220F331F441F551F0A94D2F77A
:1037500021966CAC7DAC8EAC9FAC21970E2E04C034
:1037600096948794779467940A94D2F784017301AE
:10377000E22AF32A042B152BE9AEFAAE0BAF1CAFED
:103780003201882499249201810120703070619661
:103790000CAF1DAF2EAF3FAF6197C601B501A401BD
:1037A00093010E94D4207B018C01C601B501A401C4
:1037B00093010E94D420C901DA0165968CAF9DAFB8
:1037C000AEAFBFAF6597BC01CD0161962CAD3DADED
:1037D0004EAD5FAD61970E948E209B01AC018701C9
:1037E000FF24EE24A9ACBAACCBACDCACC601AA2752
:1037F000BB275C016D01AE28BF28C02AD12AA216C2
:10380000B306C406D50660F565966CAD7DAD8EAD8C
:103810009FAD6597615070408040904065966CAF59
:103820007DAF8EAF9FAF6597A20CB31CC41CD51C97
:10383000A214B304C404D50498F0A216B306C406B7
:10384000D50670F4615070408040904065966CAF32
:103850007DAF8EAF9FAF6597A20CB31CC41CD51C67
:10386000A21AB30AC40AD50AC601B501A40193017C
:103870000E94D4207B018C01C601B501A4019301F3
:103880000E94D420C901DA013C014D01C401B301F9
:1038900061962CAD3DAD4EAD5FAD61970E948E201F
:1038A0009B01AC018701FF24EE2489AD9AADABAD3D
:1038B000BCADA070B07057016801A82AB92ACA2A05
:1038C000DB2AA216B306C406D506E0F40894610804
:1038D000710881089108A20CB31CC41CD51CA21449
:1038E000B304C404D50470F0A216B306C406D5060A
:1038F00048F408946108710881089108A20CB31C6F
:10390000C41CD51C21968CAD9DADAEADBFAD21972D
:10391000E3960FACE39704C0880F991FAA1FBB1F43
:103920000A94D2F721968CAF9DAFAEAFBFAF21976F
:10393000A21AB30AC40AD50A6596ECACFDAC0EAD6A
:103940001FAD6597D70199278827682A792A8A2A7F
:103950009B2A82012227332769960CAF1DAF2EAF19
:103960003FAF6997A2019101407050706D962CAFE6
:103970003DAF4EAF5FAF6D97C601B50169962CADF7
:103980003DAD4EAD5FAD69970E94D4207B018C01A7
:10399000C601B50169962CAD3DAD4EAD5FAD6997E1
:1039A0000E94D420C901DA01A1968CAF9DAFAEAFC1
:1039B000BFAFA197BC01CD016D962CAD3DAD4EAD15
:1039C0005FAD6D970E948E209B01AC018701FF24A3
:1039D000EE242196ACACBDACCEACDFAC2197C601D9
:1039E000AA27BB2757016801A82AB92ACA2ADB2AB5
:1039F000A216B306C406D50660F5A1966CAD7DADE2
:103A00008EAD9FADA1976150704080409040A196CF
:103A10006CAF7DAF8EAF9FAFA197A20CB31CC41C3F
:103A2000D51CA214B304C404D50498F0A216B3069E
:103A3000C406D50670F46150704080409040A19655
:103A40006CAF7DAF8EAF9FAFA197A20CB31CC41C0F
:103A5000D51CA21AB30AC40AD50AC601B5016996D3
:103A60002CAD3DAD4EAD5FAD69970E94D4207B017A
:103A70008C01C601B50169962CAD3DAD4EAD5FAD73
:103A800069970E94D420C901DA015C016D01C60169
:103A9000B5016D962CAD3DAD4EAD5FAD6D970E94FD
:103AA0008E209B01AC018701FF24EE2421968CAD72
:103AB0009DADAEADBFAD2197A070B070E82AF92AD8
:103AC0000A2B1B2BE216F30604071507C0F4089413
:103AD000A108B108C108D108E20CF31C041D151D92
:103AE000E214F3040405150550F0E216F30604078A
:103AF000150728F40894A108B108C108D108A196B7
:103B0000ECACFDAC0EAD1FADA197D701992788276E
:103B100096018501082B192B2A2B3B2B25960CAFE0
:103B20001DAF2EAF3FAF259772C26E147F04800683
:103B3000910608F45FC220E0E21620E0F20621E0E0
:103B4000020720E0120788F43FEFE316F1040105B5
:103B5000110531F028F048E050E060E070E017C057
:103B600040E050E060E070E012C040E0E41640E069
:103B7000F40640E0040741E0140728F048E150E073
:103B800060E070E004C040E150E060E070E0D80127
:103B9000C701042E04C0B695A795979587950A94FA
:103BA000D2F78D5F9F4DDC012C9130E2A32EB12C1A
:103BB000C12CD12CD601C501841B950BA60BB70BCC
:103BC000821B9109A109B1090097A105B10599F4DA
:103BD000E614F7040805190508F4FEC121966CAC3B
:103BE0007DAC8EAC9FAC2197621473048404950461
:103BF00008F0F2C1FFC1E2968FAFE297082E04C031
:103C0000EE0CFF1C001F111F0A94D2F76A2D681BCF
:103C1000D201C101062E04C0B695A7959795879548
:103C20000A94D2F75C016D01AE28BF28C02AD12AC0
:103C3000ADAABEAACFAAD8AE72016101E2960FACBE
:103C4000E29704C0CC0CDD1CEE1CFF1C0A94D2F7DA
:103C5000C9AADAAAEBAAFCAA64015301062E04C081
:103C6000D694C794B794A7940A94D2F7D401C30109
:103C7000E2960FACE29704C0880F991FAA1FBB1FE2
:103C80000A94D2F72196ECACFDAC0EAD1FAD219796
:103C900004C016950795F794E7946A95D2F7370113
:103CA0004801682A792A8A2A9B2A6DA67EA68FA6B1
:103CB00098AAEDA8FEA80FA918AD38018824992468
:103CC0009801870120703070A5960CAF1DAF2EAF04
:103CD0003FAFA597C601B501A40193010E94D4206E
:103CE0007B018C01C601B501A40193010E94D4207F
:103CF000C901DA011C012D01C201B101A5962CAD4B
:103D00003DAD4EAD5FADA5970E948E209B01AC01ED
:103D10008701FF24EE24ADA4BEA4CFA4D8A8C60179
:103D2000AA27BB2757016801A82AB92ACA2ADB2A71
:103D3000A216B306C406D50600F50894210831087A
:103D400041085108EDA8FEA80FA918ADAE0CBF1C84
:103D5000C01ED11EAE14BF04C006D10670F0A2165C
:103D6000B306C406D50648F4089421083108410872
:103D70005108AE0CBF1CC01ED11EA21AB30AC40A41
:103D8000D50AC601B501A40193010E94D4207B018C
:103D90008C01C601B501A40193010E94D420C90180
:103DA000DA013C014D01C401B301A5962CAD3DAD36
:103DB0004EAD5FADA5970E948E209B01AC0187019F
:103DC000FF24EE248DA59EA5AFA5B8A9A070B07064
:103DD00057016801A82AB92ACA2ADB2AA216B30603
:103DE000C406D50600F50894610871088108910899
:103DF0006DA97EA98FA998ADA60EB71EC81ED91EA3
:103E0000A616B706C806D90670F0A216B306C406F1
:103E1000D50648F408946108710881089108A60E37
:103E2000B71EC81ED91ED601C501821B930BA40B59
:103E3000B50B89A79AA7ABA7BCA7D101992788275B
:103E400064015301A82AB92ACA2ADB2A2596ACAEF6
:103E5000BDAECEAEDFAE2597860175012FEF3FEFE9
:103E600040E050E0E222F32204231523A601662756
:103E70007727AD964CAF5DAF6EAF7FAFAD97A9A87A
:103E8000BAA8CBA8DCA86FEF7FEF80E090E0A62275
:103E9000B722C822D92289A99AA9ABA9BCA91D0118
:103EA00044245524C801B701A60195010E948E2023
:103EB000A9966CAF7DAF8EAF9FAFA997C801B70130
:103EC000A20191010E948E203B014C01AD966CAD88
:103ED0007DAD8EAD9FADAD97A60195010E948E2060
:103EE0007B018C01AD966CAD7DAD8EAD9FADAD9778
:103EF000A20191010E948E205B016C01A801970133
:103F0000260D371D481D591DA9966CAC7DAC8EAC95
:103F10009FACA997C401AA27BB27280F391F4A1FA6
:103F20005B1F2E153F054007510748F4E12CF12C8B
:103F300061E0062F112DAE0CBF1CC01ED11ECA01A0
:103F4000AA27BB27BC01CD016A0D7B1D8C1D9D1DC1
:103F500069A47AA48BA49CA46616770688069906A1
:103F600050F1661577058805990509F04DC0D9010E
:103F700099278827A9962CAD3DAD4EAD5FADA99789
:103F800040705070820F931FA41FB51F21962CAD57
:103F90003DAD4EAD5FAD2197E2960FACE29704C008
:103FA000220F331F441F551F0A94D2F728173907D1
:103FB0004A075B0748F525960CAD1DAD2EAD3FAD0C
:103FC0002597015010402040304025960CAF1DAF82
:103FD0002EAF3FAF259718C066247724430121E018
:103FE00030E040E050E025962CAF3DAF4EAF5FAFE4
:103FF00025970DC066247724430125961CAE1DAE7F
:104000001EAE1FAE259703C0662477244301FE0130
:10401000B19688E0DF011D928A95E9F72596ACAC50
:10402000BDACCEACDFAC2597A9A2BAA2CBA2DCA2D4
:104030006DA27EA28FA298A622962FAD22973AA1BA
:104040004BA15CA1662D7EA1DFA098A5E196ECAC0A
:10405000FDAC0EAD1FADE197E114F10401051105B2
:1040600009F456C0219581E0121608F080E03195E0
:10407000E1E0131608F0E0E0932E981A81E039157C
:1040800008F080E0E82B4195F1E0141608F0F0E02C
:10409000A42EAE1A81E04A1508F080E0F82B519565
:1040A000E1E0151608F0E0E0B52EBF1A81E05B15DF
:1040B00008F080E0E82B6195F1E0161608F0F0E0DA
:1040C000A62FAE1B81E06A1708F080E0F82B7195EF
:1040D000E1E0171608F0E0E0C72ECF1A81E07C156A
:1040E00008F080E0E82B8D2D8195F1E0181608F09E
:1040F000F0E0D82EDE1AE1E08D1508F0E0E0FE2BAE
:10410000892F8195392DA5016A2F7C2D982F9F1B12
:104110008D2DCE58DF4FE2E10C942D21629FD0010E
:10412000739FF001829FE00DF11D649FE00DF11D72
:10413000929FF00D839FF00D749FF00D659FF00D21
:104140009927729FB00DE11DF91F639FB00DE11D0E
:10415000F91FBD01CF0111240895AA1BBB1B51E11A
:1041600007C0AA1FBB1FA617B70710F0A61BB70BE7
:10417000881F991F5A95A9F780959095BC01CD018C
:10418000089597FB092E07260AD077FD04D0E5DFB6
:1041900006D000201AF4709561957F4F0895F6F7C8
:1041A000909581959F4F0895A1E21A2EAA1BBB1BE3
:1041B000FD010DC0AA1FBB1FEE1FFF1FA217B307F3
:1041C000E407F50720F0A21BB30BE40BF50B661F09
:1041D000771F881F991F1A9469F7609570958095CD
:1041E00090959B01AC01BD01CF01089597FB092E6D
:1041F00005260ED057FD04D0D7DF0AD0001C38F4B6
:1042000050954095309521953F4F4F4F5F4F089502
:10421000F6F790958095709561957F4F8F4F9F4FE2
:1042200008952F923F924F925F926F927F928F925A
:104230009F92AF92BF92CF92DF92EF92FF920F9335
:104240001F93CF93DF93CDB7DEB7CA1BDB0B0FB63F
:10425000F894DEBF0FBECDBF19942A8839884888EC
:104260005F846E847D848C849B84AA84B984C88492
:10427000DF80EE80FD800C811B81AA81B981CE0F89
:10428000D11D0FB6F894DEBF0FBECDBFED0108956E
:04429000F894FFCFD0
:1042940000000000010202030303030404040404F5
:1042A40004040405050505050505050505050505BD
:1042B400050505060606060606060606060606069D
:1042C400060606060606060606060606060606068A
:1042D400060606070707070707070707070707076D
:1042E400070707070707070707070707070707075A
:1042F400070707070707070707070707070707074A
:104304000707070707070707070707070707070739
:10431400070707080808080808080808080808081C
:104324000808080808080808080808080808080809
:1043340008080808080808080808080808080808F9
:1043440008080808080808080808080808080808E9
:1043540008080808080808080808080808080808D9
:1043640008080808080808080808080808080808C9
:1043740008080808080808080808080808080808B9
:1043840008080808080808080808080808080808A9
:04439400080808000D
:00000001FF
